{"contracts/BlockCertificate.sol":{"BlockCertificate":{"abi":[{"inputs":[],"stateMutability":"nonpayable","type":"constructor"},{"anonymous":false,"inputs":[{"indexed":true,"internalType":"bytes32","name":"hashKey","type":"bytes32"},{"indexed":false,"internalType":"string","name":"studentProfile","type":"string"}],"name":"CertificateIssued","type":"event"},{"inputs":[],"name":"admin","outputs":[{"internalType":"address","name":"","type":"address"}],"stateMutability":"view","type":"function"},{"inputs":[{"internalType":"bytes32","name":"","type":"bytes32"}],"name":"certificateExists","outputs":[{"internalType":"bool","name":"","type":"bool"}],"stateMutability":"view","type":"function"},{"inputs":[{"internalType":"bytes","name":"certData","type":"bytes"},{"internalType":"string","name":"name","type":"string"},{"internalType":"string","name":"rollNumber","type":"string"},{"internalType":"string","name":"course","type":"string"},{"internalType":"string","name":"year","type":"string"},{"internalType":"string","name":"institution","type":"string"}],"name":"generateHash","outputs":[{"internalType":"bytes32","name":"","type":"bytes32"}],"stateMutability":"pure","type":"function"},{"inputs":[{"internalType":"bytes","name":"certData","type":"bytes"},{"internalType":"string","name":"name","type":"string"},{"internalType":"string","name":"rollNumber","type":"string"},{"internalType":"string","name":"course","type":"string"},{"internalType":"string","name":"year","type":"string"},{"internalType":"string","name":"institution","type":"string"}],"name":"issueCertificate","outputs":[],"stateMutability":"nonpayable","type":"function"},{"inputs":[{"internalType":"bytes32","name":"","type":"bytes32"}],"name":"studentProfiles","outputs":[{"internalType":"string","name":"","type":"string"}],"stateMutability":"view","type":"function"},{"inputs":[{"internalType":"bytes32","name":"hashKey","type":"bytes32"}],"name":"verifyHash","outputs":[{"internalType":"bool","name":"exists","type":"bool"},{"internalType":"string","name":"profile","type":"string"}],"stateMutability":"view","type":"function"}],"evm":{"bytecode":{"linkReferences":{},"object":"6080604052348015600f57600080fd5b50336000806101000a81548173ffffffffffffffffffffffffffffffffffffffff021916908373ffffffffffffffffffffffffffffffffffffffff160217905550610f738061005f6000396000f3fe608060405234801561001057600080fd5b50600436106100625760003560e01c806359e22bd414610067578063aaefc7ff14610097578063b440983e146100b3578063b9b27f00146100e3578063ef020f4a14610113578063f851a44014610144575b600080fd5b610081600480360381019061007c91906106c9565b610162565b60405161008e919061081d565b60405180910390f35b6100b160048036038101906100ac91906106c9565b6101a4565b005b6100cd60048036038101906100c89190610864565b610361565b6040516100da91906108ac565b60405180910390f35b6100fd60048036038101906100f89190610864565b610381565b60405161010a9190610946565b60405180910390f35b61012d60048036038101906101289190610864565b610421565b60405161013b929190610968565b60405180910390f35b61014c6104eb565b60405161015991906109d9565b60405180910390f35b6000878787878787876040516020016101819796959493929190610a60565b604051602081830303815290604052805190602001209050979650505050505050565b60008054906101000a900473ffffffffffffffffffffffffffffffffffffffff1673ffffffffffffffffffffffffffffffffffffffff163373ffffffffffffffffffffffffffffffffffffffff1614610232576040517f08c379a000000000000000000000000000000000000000000000000000000000815260040161022990610b06565b60405180910390fd5b600061024388888888888888610162565b90506001600082815260200190815260200160002060009054906101000a900460ff16156102a6576040517f08c379a000000000000000000000000000000000000000000000000000000000815260040161029d90610b72565b60405180910390fd5b600086868686866040516020016102c1959493929190610bde565b6040516020818303038152906040529050600180600084815260200190815260200160002060006101000a81548160ff0219169083151502179055508060026000848152602001908152602001600020908161031d9190610e6b565b50817faeb7e439524e4d35b43e6ccb53c42a2fe0361d2e96be31ebc6e2c3cb72aadb948260405161034e9190610946565b60405180910390a2505050505050505050565b60016020528060005260406000206000915054906101000a900460ff1681565b600260205280600052604060002060009150905080546103a090610c84565b80601f01602080910402602001604051908101604052809291908181526020018280546103cc90610c84565b80156104195780601f106103ee57610100808354040283529160200191610419565b820191906000526020600020905b8154815290600101906020018083116103fc57829003601f168201915b505050505081565b600060606001600084815260200190815260200160002060009054906101000a900460ff16915060026000848152602001908152602001600020805461046690610c84565b80601f016020809104026020016040519081016040528092919081815260200182805461049290610c84565b80156104df5780601f106104b4576101008083540402835291602001916104df565b820191906000526020600020905b8154815290600101906020018083116104c257829003601f168201915b50505050509050915091565b60008054906101000a900473ffffffffffffffffffffffffffffffffffffffff1681565b6000604051905090565b600080fd5b600080fd5b600080fd5b600080fd5b600080fd5b60008083601f84011261054857610547610523565b5b8235905067ffffffffffffffff81111561056557610564610528565b5b6020830191508360018202830111156105815761058061052d565b5b9250929050565b600080fd5b6000601f19601f8301169050919050565b7f4e487b7100000000000000000000000000000000000000000000000000000000600052604160045260246000fd5b6105d68261058d565b810181811067ffffffffffffffff821117156105f5576105f461059e565b5b80604052505050565b600061060861050f565b905061061482826105cd565b919050565b600067ffffffffffffffff8211156106345761063361059e565b5b61063d8261058d565b9050602081019050919050565b82818337600083830152505050565b600061066c61066784610619565b6105fe565b90508281526020810184848401111561068857610687610588565b5b61069384828561064a565b509392505050565b600082601f8301126106b0576106af610523565b5b81356106c0848260208601610659565b91505092915050565b600080600080600080600060c0888a0312156106e8576106e7610519565b5b600088013567ffffffffffffffff8111156107065761070561051e565b5b6107128a828b01610532565b9750975050602088013567ffffffffffffffff8111156107355761073461051e565b5b6107418a828b0161069b565b955050604088013567ffffffffffffffff8111156107625761076161051e565b5b61076e8a828b0161069b565b945050606088013567ffffffffffffffff81111561078f5761078e61051e565b5b61079b8a828b0161069b565b935050608088013567ffffffffffffffff8111156107bc576107bb61051e565b5b6107c88a828b0161069b565b92505060a088013567ffffffffffffffff8111156107e9576107e861051e565b5b6107f58a828b0161069b565b91505092959891949750929550565b6000819050919050565b61081781610804565b82525050565b6000602082019050610832600083018461080e565b92915050565b61084181610804565b811461084c57600080fd5b50565b60008135905061085e81610838565b92915050565b60006020828403121561087a57610879610519565b5b60006108888482850161084f565b91505092915050565b60008115159050919050565b6108a681610891565b82525050565b60006020820190506108c1600083018461089d565b92915050565b600081519050919050565b600082825260208201905092915050565b60005b838110156109015780820151818401526020810190506108e6565b60008484015250505050565b6000610918826108c7565b61092281856108d2565b93506109328185602086016108e3565b61093b8161058d565b840191505092915050565b60006020820190508181036000830152610960818461090d565b905092915050565b600060408201905061097d600083018561089d565b818103602083015261098f818461090d565b90509392505050565b600073ffffffffffffffffffffffffffffffffffffffff82169050919050565b60006109c382610998565b9050919050565b6109d3816109b8565b82525050565b60006020820190506109ee60008301846109ca565b92915050565b600081905092915050565b6000610a0b83856109f4565b9350610a1883858461064a565b82840190509392505050565b600081905092915050565b6000610a3a826108c7565b610a448185610a24565b9350610a548185602086016108e3565b80840191505092915050565b6000610a6d82898b6109ff565b9150610a798288610a2f565b9150610a858287610a2f565b9150610a918286610a2f565b9150610a9d8285610a2f565b9150610aa98284610a2f565b915081905098975050505050505050565b7f4f6e6c792061646d696e2063616e206973737565000000000000000000000000600082015250565b6000610af06014836108d2565b9150610afb82610aba565b602082019050919050565b60006020820190508181036000830152610b1f81610ae3565b9050919050565b7f436572746966696361746520616c726561647920657869737473000000000000600082015250565b6000610b5c601a836108d2565b9150610b6782610b26565b602082019050919050565b60006020820190508181036000830152610b8b81610b4f565b9050919050565b7f7c00000000000000000000000000000000000000000000000000000000000000600082015250565b6000610bc8600183610a24565b9150610bd382610b92565b600182019050919050565b6000610bea8288610a2f565b9150610bf582610bbb565b9150610c018287610a2f565b9150610c0c82610bbb565b9150610c188286610a2f565b9150610c2382610bbb565b9150610c2f8285610a2f565b9150610c3a82610bbb565b9150610c468284610a2f565b91508190509695505050505050565b7f4e487b7100000000000000000000000000000000000000000000000000000000600052602260045260246000fd5b60006002820490506001821680610c9c57607f821691505b602082108103610caf57610cae610c55565b5b50919050565b60008190508160005260206000209050919050565b60006020601f8301049050919050565b600082821b905092915050565b600060088302610d177fffffffffffffffffffffffffffffffffffffffffffffffffffffffffffffffff82610cda565b610d218683610cda565b95508019841693508086168417925050509392505050565b6000819050919050565b6000819050919050565b6000610d68610d63610d5e84610d39565b610d43565b610d39565b9050919050565b6000819050919050565b610d8283610d4d565b610d96610d8e82610d6f565b848454610ce7565b825550505050565b600090565b610dab610d9e565b610db6818484610d79565b505050565b5b81811015610dda57610dcf600082610da3565b600181019050610dbc565b5050565b601f821115610e1f57610df081610cb5565b610df984610cca565b81016020851015610e08578190505b610e1c610e1485610cca565b830182610dbb565b50505b505050565b600082821c905092915050565b6000610e4260001984600802610e24565b1980831691505092915050565b6000610e5b8383610e31565b9150826002028217905092915050565b610e74826108c7565b67ffffffffffffffff811115610e8d57610e8c61059e565b5b610e978254610c84565b610ea2828285610dde565b600060209050601f831160018114610ed55760008415610ec3578287015190505b610ecd8582610e4f565b865550610f35565b601f198416610ee386610cb5565b60005b82811015610f0b57848901518255600182019150602085019450602081019050610ee6565b86831015610f285784890151610f24601f891682610e31565b8355505b6001600288020188555050505b50505050505056fea2646970667358221220191c78aa316b339de5b0789e421a5b37a6e5c99ce94c4ca497bfda625691a55964736f6c634300081c0033","opcodes":"PUSH1 0x80 PUSH1 0x40 MSTORE CALLVALUE DUP1 ISZERO PUSH1 0xF JUMPI PUSH1 0x0 DUP1 REVERT JUMPDEST POP CALLER PUSH1 0x0 DUP1 PUSH2 0x100 EXP DUP2 SLOAD DUP2 PUSH20 0xFFFFFFFFFFFFFFFFFFFFFFFFFFFFFFFFFFFFFFFF MUL NOT AND SWAP1 DUP4 PUSH20 0xFFFFFFFFFFFFFFFFFFFFFFFFFFFFFFFFFFFFFFFF AND MUL OR SWAP1 SSTORE POP PUSH2 0xF73 DUP1 PUSH2 0x5F PUSH1 0x0 CODECOPY PUSH1 0x0 RETURN INVALID PUSH1 0x80 PUSH1 0x40 MSTORE CALLVALUE DUP1 ISZERO PUSH2 0x10 JUMPI PUSH1 0x0 DUP1 REVERT JUMPDEST POP PUSH1 0x4 CALLDATASIZE LT PUSH2 0x62 JUMPI PUSH1 0x0 CALLDATALOAD PUSH1 0xE0 SHR DUP1 PUSH4 0x59E22BD4 EQ PUSH2 0x67 JUMPI DUP1 PUSH4 0xAAEFC7FF EQ PUSH2 0x97 JUMPI DUP1 PUSH4 0xB440983E EQ PUSH2 0xB3 JUMPI DUP1 PUSH4 0xB9B27F00 EQ PUSH2 0xE3 JUMPI DUP1 PUSH4 0xEF020F4A EQ PUSH2 0x113 JUMPI DUP1 PUSH4 0xF851A440 EQ PUSH2 0x144 JUMPI JUMPDEST PUSH1 0x0 DUP1 REVERT JUMPDEST PUSH2 0x81 PUSH1 0x4 DUP1 CALLDATASIZE SUB DUP2 ADD SWAP1 PUSH2 0x7C SWAP2 SWAP1 PUSH2 0x6C9 JUMP JUMPDEST PUSH2 0x162 JUMP JUMPDEST PUSH1 0x40 MLOAD PUSH2 0x8E SWAP2 SWAP1 PUSH2 0x81D JUMP JUMPDEST PUSH1 0x40 MLOAD DUP1 SWAP2 SUB SWAP1 RETURN JUMPDEST PUSH2 0xB1 PUSH1 0x4 DUP1 CALLDATASIZE SUB DUP2 ADD SWAP1 PUSH2 0xAC SWAP2 SWAP1 PUSH2 0x6C9 JUMP JUMPDEST PUSH2 0x1A4 JUMP JUMPDEST STOP JUMPDEST PUSH2 0xCD PUSH1 0x4 DUP1 CALLDATASIZE SUB DUP2 ADD SWAP1 PUSH2 0xC8 SWAP2 SWAP1 PUSH2 0x864 JUMP JUMPDEST PUSH2 0x361 JUMP JUMPDEST PUSH1 0x40 MLOAD PUSH2 0xDA SWAP2 SWAP1 PUSH2 0x8AC JUMP JUMPDEST PUSH1 0x40 MLOAD DUP1 SWAP2 SUB SWAP1 RETURN JUMPDEST PUSH2 0xFD PUSH1 0x4 DUP1 CALLDATASIZE SUB DUP2 ADD SWAP1 PUSH2 0xF8 SWAP2 SWAP1 PUSH2 0x864 JUMP JUMPDEST PUSH2 0x381 JUMP JUMPDEST PUSH1 0x40 MLOAD PUSH2 0x10A SWAP2 SWAP1 PUSH2 0x946 JUMP JUMPDEST PUSH1 0x40 MLOAD DUP1 SWAP2 SUB SWAP1 RETURN JUMPDEST PUSH2 0x12D PUSH1 0x4 DUP1 CALLDATASIZE SUB DUP2 ADD SWAP1 PUSH2 0x128 SWAP2 SWAP1 PUSH2 0x864 JUMP JUMPDEST PUSH2 0x421 JUMP JUMPDEST PUSH1 0x40 MLOAD PUSH2 0x13B SWAP3 SWAP2 SWAP1 PUSH2 0x968 JUMP JUMPDEST PUSH1 0x40 MLOAD DUP1 SWAP2 SUB SWAP1 RETURN JUMPDEST PUSH2 0x14C PUSH2 0x4EB JUMP JUMPDEST PUSH1 0x40 MLOAD PUSH2 0x159 SWAP2 SWAP1 PUSH2 0x9D9 JUMP JUMPDEST PUSH1 0x40 MLOAD DUP1 SWAP2 SUB SWAP1 RETURN JUMPDEST PUSH1 0x0 DUP8 DUP8 DUP8 DUP8 DUP8 DUP8 DUP8 PUSH1 0x40 MLOAD PUSH1 0x20 ADD PUSH2 0x181 SWAP8 SWAP7 SWAP6 SWAP5 SWAP4 SWAP3 SWAP2 SWAP1 PUSH2 0xA60 JUMP JUMPDEST PUSH1 0x40 MLOAD PUSH1 0x20 DUP2 DUP4 SUB SUB DUP2 MSTORE SWAP1 PUSH1 0x40 MSTORE DUP1 MLOAD SWAP1 PUSH1 0x20 ADD KECCAK256 SWAP1 POP SWAP8 SWAP7 POP POP POP POP POP POP POP JUMP JUMPDEST PUSH1 0x0 DUP1 SLOAD SWAP1 PUSH2 0x100 EXP SWAP1 DIV PUSH20 0xFFFFFFFFFFFFFFFFFFFFFFFFFFFFFFFFFFFFFFFF AND PUSH20 0xFFFFFFFFFFFFFFFFFFFFFFFFFFFFFFFFFFFFFFFF AND CALLER PUSH20 0xFFFFFFFFFFFFFFFFFFFFFFFFFFFFFFFFFFFFFFFF AND EQ PUSH2 0x232 JUMPI PUSH1 0x40 MLOAD PUSH32 0x8C379A000000000000000000000000000000000000000000000000000000000 DUP2 MSTORE PUSH1 0x4 ADD PUSH2 0x229 SWAP1 PUSH2 0xB06 JUMP JUMPDEST PUSH1 0x40 MLOAD DUP1 SWAP2 SUB SWAP1 REVERT JUMPDEST PUSH1 0x0 PUSH2 0x243 DUP9 DUP9 DUP9 DUP9 DUP9 DUP9 DUP9 PUSH2 0x162 JUMP JUMPDEST SWAP1 POP PUSH1 0x1 PUSH1 0x0 DUP3 DUP2 MSTORE PUSH1 0x20 ADD SWAP1 DUP2 MSTORE PUSH1 0x20 ADD PUSH1 0x0 KECCAK256 PUSH1 0x0 SWAP1 SLOAD SWAP1 PUSH2 0x100 EXP SWAP1 DIV PUSH1 0xFF AND ISZERO PUSH2 0x2A6 JUMPI PUSH1 0x40 MLOAD PUSH32 0x8C379A000000000000000000000000000000000000000000000000000000000 DUP2 MSTORE PUSH1 0x4 ADD PUSH2 0x29D SWAP1 PUSH2 0xB72 JUMP JUMPDEST PUSH1 0x40 MLOAD DUP1 SWAP2 SUB SWAP1 REVERT JUMPDEST PUSH1 0x0 DUP7 DUP7 DUP7 DUP7 DUP7 PUSH1 0x40 MLOAD PUSH1 0x20 ADD PUSH2 0x2C1 SWAP6 SWAP5 SWAP4 SWAP3 SWAP2 SWAP1 PUSH2 0xBDE JUMP JUMPDEST PUSH1 0x40 MLOAD PUSH1 0x20 DUP2 DUP4 SUB SUB DUP2 MSTORE SWAP1 PUSH1 0x40 MSTORE SWAP1 POP PUSH1 0x1 DUP1 PUSH1 0x0 DUP5 DUP2 MSTORE PUSH1 0x20 ADD SWAP1 DUP2 MSTORE PUSH1 0x20 ADD PUSH1 0x0 KECCAK256 PUSH1 0x0 PUSH2 0x100 EXP DUP2 SLOAD DUP2 PUSH1 0xFF MUL NOT AND SWAP1 DUP4 ISZERO ISZERO MUL OR SWAP1 SSTORE POP DUP1 PUSH1 0x2 PUSH1 0x0 DUP5 DUP2 MSTORE PUSH1 0x20 ADD SWAP1 DUP2 MSTORE PUSH1 0x20 ADD PUSH1 0x0 KECCAK256 SWAP1 DUP2 PUSH2 0x31D SWAP2 SWAP1 PUSH2 0xE6B JUMP JUMPDEST POP DUP2 PUSH32 0xAEB7E439524E4D35B43E6CCB53C42A2FE0361D2E96BE31EBC6E2C3CB72AADB94 DUP3 PUSH1 0x40 MLOAD PUSH2 0x34E SWAP2 SWAP1 PUSH2 0x946 JUMP JUMPDEST PUSH1 0x40 MLOAD DUP1 SWAP2 SUB SWAP1 LOG2 POP POP POP POP POP POP POP POP POP JUMP JUMPDEST PUSH1 0x1 PUSH1 0x20 MSTORE DUP1 PUSH1 0x0 MSTORE PUSH1 0x40 PUSH1 0x0 KECCAK256 PUSH1 0x0 SWAP2 POP SLOAD SWAP1 PUSH2 0x100 EXP SWAP1 DIV PUSH1 0xFF AND DUP2 JUMP JUMPDEST PUSH1 0x2 PUSH1 0x20 MSTORE DUP1 PUSH1 0x0 MSTORE PUSH1 0x40 PUSH1 0x0 KECCAK256 PUSH1 0x0 SWAP2 POP SWAP1 POP DUP1 SLOAD PUSH2 0x3A0 SWAP1 PUSH2 0xC84 JUMP JUMPDEST DUP1 PUSH1 0x1F ADD PUSH1 0x20 DUP1 SWAP2 DIV MUL PUSH1 0x20 ADD PUSH1 0x40 MLOAD SWAP1 DUP2 ADD PUSH1 0x40 MSTORE DUP1 SWAP3 SWAP2 SWAP1 DUP2 DUP2 MSTORE PUSH1 0x20 ADD DUP3 DUP1 SLOAD PUSH2 0x3CC SWAP1 PUSH2 0xC84 JUMP JUMPDEST DUP1 ISZERO PUSH2 0x419 JUMPI DUP1 PUSH1 0x1F LT PUSH2 0x3EE JUMPI PUSH2 0x100 DUP1 DUP4 SLOAD DIV MUL DUP4 MSTORE SWAP2 PUSH1 0x20 ADD SWAP2 PUSH2 0x419 JUMP JUMPDEST DUP3 ADD SWAP2 SWAP1 PUSH1 0x0 MSTORE PUSH1 0x20 PUSH1 0x0 KECCAK256 SWAP1 JUMPDEST DUP2 SLOAD DUP2 MSTORE SWAP1 PUSH1 0x1 ADD SWAP1 PUSH1 0x20 ADD DUP1 DUP4 GT PUSH2 0x3FC JUMPI DUP3 SWAP1 SUB PUSH1 0x1F AND DUP3 ADD SWAP2 JUMPDEST POP POP POP POP POP DUP2 JUMP JUMPDEST PUSH1 0x0 PUSH1 0x60 PUSH1 0x1 PUSH1 0x0 DUP5 DUP2 MSTORE PUSH1 0x20 ADD SWAP1 DUP2 MSTORE PUSH1 0x20 ADD PUSH1 0x0 KECCAK256 PUSH1 0x0 SWAP1 SLOAD SWAP1 PUSH2 0x100 EXP SWAP1 DIV PUSH1 0xFF AND SWAP2 POP PUSH1 0x2 PUSH1 0x0 DUP5 DUP2 MSTORE PUSH1 0x20 ADD SWAP1 DUP2 MSTORE PUSH1 0x20 ADD PUSH1 0x0 KECCAK256 DUP1 SLOAD PUSH2 0x466 SWAP1 PUSH2 0xC84 JUMP JUMPDEST DUP1 PUSH1 0x1F ADD PUSH1 0x20 DUP1 SWAP2 DIV MUL PUSH1 0x20 ADD PUSH1 0x40 MLOAD SWAP1 DUP2 ADD PUSH1 0x40 MSTORE DUP1 SWAP3 SWAP2 SWAP1 DUP2 DUP2 MSTORE PUSH1 0x20 ADD DUP3 DUP1 SLOAD PUSH2 0x492 SWAP1 PUSH2 0xC84 JUMP JUMPDEST DUP1 ISZERO PUSH2 0x4DF JUMPI DUP1 PUSH1 0x1F LT PUSH2 0x4B4 JUMPI PUSH2 0x100 DUP1 DUP4 SLOAD DIV MUL DUP4 MSTORE SWAP2 PUSH1 0x20 ADD SWAP2 PUSH2 0x4DF JUMP JUMPDEST DUP3 ADD SWAP2 SWAP1 PUSH1 0x0 MSTORE PUSH1 0x20 PUSH1 0x0 KECCAK256 SWAP1 JUMPDEST DUP2 SLOAD DUP2 MSTORE SWAP1 PUSH1 0x1 ADD SWAP1 PUSH1 0x20 ADD DUP1 DUP4 GT PUSH2 0x4C2 JUMPI DUP3 SWAP1 SUB PUSH1 0x1F AND DUP3 ADD SWAP2 JUMPDEST POP POP POP POP POP SWAP1 POP SWAP2 POP SWAP2 JUMP JUMPDEST PUSH1 0x0 DUP1 SLOAD SWAP1 PUSH2 0x100 EXP SWAP1 DIV PUSH20 0xFFFFFFFFFFFFFFFFFFFFFFFFFFFFFFFFFFFFFFFF AND DUP2 JUMP JUMPDEST PUSH1 0x0 PUSH1 0x40 MLOAD SWAP1 POP SWAP1 JUMP JUMPDEST PUSH1 0x0 DUP1 REVERT JUMPDEST PUSH1 0x0 DUP1 REVERT JUMPDEST PUSH1 0x0 DUP1 REVERT JUMPDEST PUSH1 0x0 DUP1 REVERT JUMPDEST PUSH1 0x0 DUP1 REVERT JUMPDEST PUSH1 0x0 DUP1 DUP4 PUSH1 0x1F DUP5 ADD SLT PUSH2 0x548 JUMPI PUSH2 0x547 PUSH2 0x523 JUMP JUMPDEST JUMPDEST DUP3 CALLDATALOAD SWAP1 POP PUSH8 0xFFFFFFFFFFFFFFFF DUP2 GT ISZERO PUSH2 0x565 JUMPI PUSH2 0x564 PUSH2 0x528 JUMP JUMPDEST JUMPDEST PUSH1 0x20 DUP4 ADD SWAP2 POP DUP4 PUSH1 0x1 DUP3 MUL DUP4 ADD GT ISZERO PUSH2 0x581 JUMPI PUSH2 0x580 PUSH2 0x52D JUMP JUMPDEST JUMPDEST SWAP3 POP SWAP3 SWAP1 POP JUMP JUMPDEST PUSH1 0x0 DUP1 REVERT JUMPDEST PUSH1 0x0 PUSH1 0x1F NOT PUSH1 0x1F DUP4 ADD AND SWAP1 POP SWAP2 SWAP1 POP JUMP JUMPDEST PUSH32 0x4E487B7100000000000000000000000000000000000000000000000000000000 PUSH1 0x0 MSTORE PUSH1 0x41 PUSH1 0x4 MSTORE PUSH1 0x24 PUSH1 0x0 REVERT JUMPDEST PUSH2 0x5D6 DUP3 PUSH2 0x58D JUMP JUMPDEST DUP2 ADD DUP2 DUP2 LT PUSH8 0xFFFFFFFFFFFFFFFF DUP3 GT OR ISZERO PUSH2 0x5F5 JUMPI PUSH2 0x5F4 PUSH2 0x59E JUMP JUMPDEST JUMPDEST DUP1 PUSH1 0x40 MSTORE POP POP POP JUMP JUMPDEST PUSH1 0x0 PUSH2 0x608 PUSH2 0x50F JUMP JUMPDEST SWAP1 POP PUSH2 0x614 DUP3 DUP3 PUSH2 0x5CD JUMP JUMPDEST SWAP2 SWAP1 POP JUMP JUMPDEST PUSH1 0x0 PUSH8 0xFFFFFFFFFFFFFFFF DUP3 GT ISZERO PUSH2 0x634 JUMPI PUSH2 0x633 PUSH2 0x59E JUMP JUMPDEST JUMPDEST PUSH2 0x63D DUP3 PUSH2 0x58D JUMP JUMPDEST SWAP1 POP PUSH1 0x20 DUP2 ADD SWAP1 POP SWAP2 SWAP1 POP JUMP JUMPDEST DUP3 DUP2 DUP4 CALLDATACOPY PUSH1 0x0 DUP4 DUP4 ADD MSTORE POP POP POP JUMP JUMPDEST PUSH1 0x0 PUSH2 0x66C PUSH2 0x667 DUP5 PUSH2 0x619 JUMP JUMPDEST PUSH2 0x5FE JUMP JUMPDEST SWAP1 POP DUP3 DUP2 MSTORE PUSH1 0x20 DUP2 ADD DUP5 DUP5 DUP5 ADD GT ISZERO PUSH2 0x688 JUMPI PUSH2 0x687 PUSH2 0x588 JUMP JUMPDEST JUMPDEST PUSH2 0x693 DUP5 DUP3 DUP6 PUSH2 0x64A JUMP JUMPDEST POP SWAP4 SWAP3 POP POP POP JUMP JUMPDEST PUSH1 0x0 DUP3 PUSH1 0x1F DUP4 ADD SLT PUSH2 0x6B0 JUMPI PUSH2 0x6AF PUSH2 0x523 JUMP JUMPDEST JUMPDEST DUP2 CALLDATALOAD PUSH2 0x6C0 DUP5 DUP3 PUSH1 0x20 DUP7 ADD PUSH2 0x659 JUMP JUMPDEST SWAP2 POP POP SWAP3 SWAP2 POP POP JUMP JUMPDEST PUSH1 0x0 DUP1 PUSH1 0x0 DUP1 PUSH1 0x0 DUP1 PUSH1 0x0 PUSH1 0xC0 DUP9 DUP11 SUB SLT ISZERO PUSH2 0x6E8 JUMPI PUSH2 0x6E7 PUSH2 0x519 JUMP JUMPDEST JUMPDEST PUSH1 0x0 DUP9 ADD CALLDATALOAD PUSH8 0xFFFFFFFFFFFFFFFF DUP2 GT ISZERO PUSH2 0x706 JUMPI PUSH2 0x705 PUSH2 0x51E JUMP JUMPDEST JUMPDEST PUSH2 0x712 DUP11 DUP3 DUP12 ADD PUSH2 0x532 JUMP JUMPDEST SWAP8 POP SWAP8 POP POP PUSH1 0x20 DUP9 ADD CALLDATALOAD PUSH8 0xFFFFFFFFFFFFFFFF DUP2 GT ISZERO PUSH2 0x735 JUMPI PUSH2 0x734 PUSH2 0x51E JUMP JUMPDEST JUMPDEST PUSH2 0x741 DUP11 DUP3 DUP12 ADD PUSH2 0x69B JUMP JUMPDEST SWAP6 POP POP PUSH1 0x40 DUP9 ADD CALLDATALOAD PUSH8 0xFFFFFFFFFFFFFFFF DUP2 GT ISZERO PUSH2 0x762 JUMPI PUSH2 0x761 PUSH2 0x51E JUMP JUMPDEST JUMPDEST PUSH2 0x76E DUP11 DUP3 DUP12 ADD PUSH2 0x69B JUMP JUMPDEST SWAP5 POP POP PUSH1 0x60 DUP9 ADD CALLDATALOAD PUSH8 0xFFFFFFFFFFFFFFFF DUP2 GT ISZERO PUSH2 0x78F JUMPI PUSH2 0x78E PUSH2 0x51E JUMP JUMPDEST JUMPDEST PUSH2 0x79B DUP11 DUP3 DUP12 ADD PUSH2 0x69B JUMP JUMPDEST SWAP4 POP POP PUSH1 0x80 DUP9 ADD CALLDATALOAD PUSH8 0xFFFFFFFFFFFFFFFF DUP2 GT ISZERO PUSH2 0x7BC JUMPI PUSH2 0x7BB PUSH2 0x51E JUMP JUMPDEST JUMPDEST PUSH2 0x7C8 DUP11 DUP3 DUP12 ADD PUSH2 0x69B JUMP JUMPDEST SWAP3 POP POP PUSH1 0xA0 DUP9 ADD CALLDATALOAD PUSH8 0xFFFFFFFFFFFFFFFF DUP2 GT ISZERO PUSH2 0x7E9 JUMPI PUSH2 0x7E8 PUSH2 0x51E JUMP JUMPDEST JUMPDEST PUSH2 0x7F5 DUP11 DUP3 DUP12 ADD PUSH2 0x69B JUMP JUMPDEST SWAP2 POP POP SWAP3 SWAP6 SWAP9 SWAP2 SWAP5 SWAP8 POP SWAP3 SWAP6 POP JUMP JUMPDEST PUSH1 0x0 DUP2 SWAP1 POP SWAP2 SWAP1 POP JUMP JUMPDEST PUSH2 0x817 DUP2 PUSH2 0x804 JUMP JUMPDEST DUP3 MSTORE POP POP JUMP JUMPDEST PUSH1 0x0 PUSH1 0x20 DUP3 ADD SWAP1 POP PUSH2 0x832 PUSH1 0x0 DUP4 ADD DUP5 PUSH2 0x80E JUMP JUMPDEST SWAP3 SWAP2 POP POP JUMP JUMPDEST PUSH2 0x841 DUP2 PUSH2 0x804 JUMP JUMPDEST DUP2 EQ PUSH2 0x84C JUMPI PUSH1 0x0 DUP1 REVERT JUMPDEST POP JUMP JUMPDEST PUSH1 0x0 DUP2 CALLDATALOAD SWAP1 POP PUSH2 0x85E DUP2 PUSH2 0x838 JUMP JUMPDEST SWAP3 SWAP2 POP POP JUMP JUMPDEST PUSH1 0x0 PUSH1 0x20 DUP3 DUP5 SUB SLT ISZERO PUSH2 0x87A JUMPI PUSH2 0x879 PUSH2 0x519 JUMP JUMPDEST JUMPDEST PUSH1 0x0 PUSH2 0x888 DUP5 DUP3 DUP6 ADD PUSH2 0x84F JUMP JUMPDEST SWAP2 POP POP SWAP3 SWAP2 POP POP JUMP JUMPDEST PUSH1 0x0 DUP2 ISZERO ISZERO SWAP1 POP SWAP2 SWAP1 POP JUMP JUMPDEST PUSH2 0x8A6 DUP2 PUSH2 0x891 JUMP JUMPDEST DUP3 MSTORE POP POP JUMP JUMPDEST PUSH1 0x0 PUSH1 0x20 DUP3 ADD SWAP1 POP PUSH2 0x8C1 PUSH1 0x0 DUP4 ADD DUP5 PUSH2 0x89D JUMP JUMPDEST SWAP3 SWAP2 POP POP JUMP JUMPDEST PUSH1 0x0 DUP2 MLOAD SWAP1 POP SWAP2 SWAP1 POP JUMP JUMPDEST PUSH1 0x0 DUP3 DUP3 MSTORE PUSH1 0x20 DUP3 ADD SWAP1 POP SWAP3 SWAP2 POP POP JUMP JUMPDEST PUSH1 0x0 JUMPDEST DUP4 DUP2 LT ISZERO PUSH2 0x901 JUMPI DUP1 DUP3 ADD MLOAD DUP2 DUP5 ADD MSTORE PUSH1 0x20 DUP2 ADD SWAP1 POP PUSH2 0x8E6 JUMP JUMPDEST PUSH1 0x0 DUP5 DUP5 ADD MSTORE POP POP POP POP JUMP JUMPDEST PUSH1 0x0 PUSH2 0x918 DUP3 PUSH2 0x8C7 JUMP JUMPDEST PUSH2 0x922 DUP2 DUP6 PUSH2 0x8D2 JUMP JUMPDEST SWAP4 POP PUSH2 0x932 DUP2 DUP6 PUSH1 0x20 DUP7 ADD PUSH2 0x8E3 JUMP JUMPDEST PUSH2 0x93B DUP2 PUSH2 0x58D JUMP JUMPDEST DUP5 ADD SWAP2 POP POP SWAP3 SWAP2 POP POP JUMP JUMPDEST PUSH1 0x0 PUSH1 0x20 DUP3 ADD SWAP1 POP DUP2 DUP2 SUB PUSH1 0x0 DUP4 ADD MSTORE PUSH2 0x960 DUP2 DUP5 PUSH2 0x90D JUMP JUMPDEST SWAP1 POP SWAP3 SWAP2 POP POP JUMP JUMPDEST PUSH1 0x0 PUSH1 0x40 DUP3 ADD SWAP1 POP PUSH2 0x97D PUSH1 0x0 DUP4 ADD DUP6 PUSH2 0x89D JUMP JUMPDEST DUP2 DUP2 SUB PUSH1 0x20 DUP4 ADD MSTORE PUSH2 0x98F DUP2 DUP5 PUSH2 0x90D JUMP JUMPDEST SWAP1 POP SWAP4 SWAP3 POP POP POP JUMP JUMPDEST PUSH1 0x0 PUSH20 0xFFFFFFFFFFFFFFFFFFFFFFFFFFFFFFFFFFFFFFFF DUP3 AND SWAP1 POP SWAP2 SWAP1 POP JUMP JUMPDEST PUSH1 0x0 PUSH2 0x9C3 DUP3 PUSH2 0x998 JUMP JUMPDEST SWAP1 POP SWAP2 SWAP1 POP JUMP JUMPDEST PUSH2 0x9D3 DUP2 PUSH2 0x9B8 JUMP JUMPDEST DUP3 MSTORE POP POP JUMP JUMPDEST PUSH1 0x0 PUSH1 0x20 DUP3 ADD SWAP1 POP PUSH2 0x9EE PUSH1 0x0 DUP4 ADD DUP5 PUSH2 0x9CA JUMP JUMPDEST SWAP3 SWAP2 POP POP JUMP JUMPDEST PUSH1 0x0 DUP2 SWAP1 POP SWAP3 SWAP2 POP POP JUMP JUMPDEST PUSH1 0x0 PUSH2 0xA0B DUP4 DUP6 PUSH2 0x9F4 JUMP JUMPDEST SWAP4 POP PUSH2 0xA18 DUP4 DUP6 DUP5 PUSH2 0x64A JUMP JUMPDEST DUP3 DUP5 ADD SWAP1 POP SWAP4 SWAP3 POP POP POP JUMP JUMPDEST PUSH1 0x0 DUP2 SWAP1 POP SWAP3 SWAP2 POP POP JUMP JUMPDEST PUSH1 0x0 PUSH2 0xA3A DUP3 PUSH2 0x8C7 JUMP JUMPDEST PUSH2 0xA44 DUP2 DUP6 PUSH2 0xA24 JUMP JUMPDEST SWAP4 POP PUSH2 0xA54 DUP2 DUP6 PUSH1 0x20 DUP7 ADD PUSH2 0x8E3 JUMP JUMPDEST DUP1 DUP5 ADD SWAP2 POP POP SWAP3 SWAP2 POP POP JUMP JUMPDEST PUSH1 0x0 PUSH2 0xA6D DUP3 DUP10 DUP12 PUSH2 0x9FF JUMP JUMPDEST SWAP2 POP PUSH2 0xA79 DUP3 DUP9 PUSH2 0xA2F JUMP JUMPDEST SWAP2 POP PUSH2 0xA85 DUP3 DUP8 PUSH2 0xA2F JUMP JUMPDEST SWAP2 POP PUSH2 0xA91 DUP3 DUP7 PUSH2 0xA2F JUMP JUMPDEST SWAP2 POP PUSH2 0xA9D DUP3 DUP6 PUSH2 0xA2F JUMP JUMPDEST SWAP2 POP PUSH2 0xAA9 DUP3 DUP5 PUSH2 0xA2F JUMP JUMPDEST SWAP2 POP DUP2 SWAP1 POP SWAP9 SWAP8 POP POP POP POP POP POP POP POP JUMP JUMPDEST PUSH32 0x4F6E6C792061646D696E2063616E206973737565000000000000000000000000 PUSH1 0x0 DUP3 ADD MSTORE POP JUMP JUMPDEST PUSH1 0x0 PUSH2 0xAF0 PUSH1 0x14 DUP4 PUSH2 0x8D2 JUMP JUMPDEST SWAP2 POP PUSH2 0xAFB DUP3 PUSH2 0xABA JUMP JUMPDEST PUSH1 0x20 DUP3 ADD SWAP1 POP SWAP2 SWAP1 POP JUMP JUMPDEST PUSH1 0x0 PUSH1 0x20 DUP3 ADD SWAP1 POP DUP2 DUP2 SUB PUSH1 0x0 DUP4 ADD MSTORE PUSH2 0xB1F DUP2 PUSH2 0xAE3 JUMP JUMPDEST SWAP1 POP SWAP2 SWAP1 POP JUMP JUMPDEST PUSH32 0x436572746966696361746520616C726561647920657869737473000000000000 PUSH1 0x0 DUP3 ADD MSTORE POP JUMP JUMPDEST PUSH1 0x0 PUSH2 0xB5C PUSH1 0x1A DUP4 PUSH2 0x8D2 JUMP JUMPDEST SWAP2 POP PUSH2 0xB67 DUP3 PUSH2 0xB26 JUMP JUMPDEST PUSH1 0x20 DUP3 ADD SWAP1 POP SWAP2 SWAP1 POP JUMP JUMPDEST PUSH1 0x0 PUSH1 0x20 DUP3 ADD SWAP1 POP DUP2 DUP2 SUB PUSH1 0x0 DUP4 ADD MSTORE PUSH2 0xB8B DUP2 PUSH2 0xB4F JUMP JUMPDEST SWAP1 POP SWAP2 SWAP1 POP JUMP JUMPDEST PUSH32 0x7C00000000000000000000000000000000000000000000000000000000000000 PUSH1 0x0 DUP3 ADD MSTORE POP JUMP JUMPDEST PUSH1 0x0 PUSH2 0xBC8 PUSH1 0x1 DUP4 PUSH2 0xA24 JUMP JUMPDEST SWAP2 POP PUSH2 0xBD3 DUP3 PUSH2 0xB92 JUMP JUMPDEST PUSH1 0x1 DUP3 ADD SWAP1 POP SWAP2 SWAP1 POP JUMP JUMPDEST PUSH1 0x0 PUSH2 0xBEA DUP3 DUP9 PUSH2 0xA2F JUMP JUMPDEST SWAP2 POP PUSH2 0xBF5 DUP3 PUSH2 0xBBB JUMP JUMPDEST SWAP2 POP PUSH2 0xC01 DUP3 DUP8 PUSH2 0xA2F JUMP JUMPDEST SWAP2 POP PUSH2 0xC0C DUP3 PUSH2 0xBBB JUMP JUMPDEST SWAP2 POP PUSH2 0xC18 DUP3 DUP7 PUSH2 0xA2F JUMP JUMPDEST SWAP2 POP PUSH2 0xC23 DUP3 PUSH2 0xBBB JUMP JUMPDEST SWAP2 POP PUSH2 0xC2F DUP3 DUP6 PUSH2 0xA2F JUMP JUMPDEST SWAP2 POP PUSH2 0xC3A DUP3 PUSH2 0xBBB JUMP JUMPDEST SWAP2 POP PUSH2 0xC46 DUP3 DUP5 PUSH2 0xA2F JUMP JUMPDEST SWAP2 POP DUP2 SWAP1 POP SWAP7 SWAP6 POP POP POP POP POP POP JUMP JUMPDEST PUSH32 0x4E487B7100000000000000000000000000000000000000000000000000000000 PUSH1 0x0 MSTORE PUSH1 0x22 PUSH1 0x4 MSTORE PUSH1 0x24 PUSH1 0x0 REVERT JUMPDEST PUSH1 0x0 PUSH1 0x2 DUP3 DIV SWAP1 POP PUSH1 0x1 DUP3 AND DUP1 PUSH2 0xC9C JUMPI PUSH1 0x7F DUP3 AND SWAP2 POP JUMPDEST PUSH1 0x20 DUP3 LT DUP2 SUB PUSH2 0xCAF JUMPI PUSH2 0xCAE PUSH2 0xC55 JUMP JUMPDEST JUMPDEST POP SWAP2 SWAP1 POP JUMP JUMPDEST PUSH1 0x0 DUP2 SWAP1 POP DUP2 PUSH1 0x0 MSTORE PUSH1 0x20 PUSH1 0x0 KECCAK256 SWAP1 POP SWAP2 SWAP1 POP JUMP JUMPDEST PUSH1 0x0 PUSH1 0x20 PUSH1 0x1F DUP4 ADD DIV SWAP1 POP SWAP2 SWAP1 POP JUMP JUMPDEST PUSH1 0x0 DUP3 DUP3 SHL SWAP1 POP SWAP3 SWAP2 POP POP JUMP JUMPDEST PUSH1 0x0 PUSH1 0x8 DUP4 MUL PUSH2 0xD17 PUSH32 0xFFFFFFFFFFFFFFFFFFFFFFFFFFFFFFFFFFFFFFFFFFFFFFFFFFFFFFFFFFFFFFFF DUP3 PUSH2 0xCDA JUMP JUMPDEST PUSH2 0xD21 DUP7 DUP4 PUSH2 0xCDA JUMP JUMPDEST SWAP6 POP DUP1 NOT DUP5 AND SWAP4 POP DUP1 DUP7 AND DUP5 OR SWAP3 POP POP POP SWAP4 SWAP3 POP POP POP JUMP JUMPDEST PUSH1 0x0 DUP2 SWAP1 POP SWAP2 SWAP1 POP JUMP JUMPDEST PUSH1 0x0 DUP2 SWAP1 POP SWAP2 SWAP1 POP JUMP JUMPDEST PUSH1 0x0 PUSH2 0xD68 PUSH2 0xD63 PUSH2 0xD5E DUP5 PUSH2 0xD39 JUMP JUMPDEST PUSH2 0xD43 JUMP JUMPDEST PUSH2 0xD39 JUMP JUMPDEST SWAP1 POP SWAP2 SWAP1 POP JUMP JUMPDEST PUSH1 0x0 DUP2 SWAP1 POP SWAP2 SWAP1 POP JUMP JUMPDEST PUSH2 0xD82 DUP4 PUSH2 0xD4D JUMP JUMPDEST PUSH2 0xD96 PUSH2 0xD8E DUP3 PUSH2 0xD6F JUMP JUMPDEST DUP5 DUP5 SLOAD PUSH2 0xCE7 JUMP JUMPDEST DUP3 SSTORE POP POP POP POP JUMP JUMPDEST PUSH1 0x0 SWAP1 JUMP JUMPDEST PUSH2 0xDAB PUSH2 0xD9E JUMP JUMPDEST PUSH2 0xDB6 DUP2 DUP5 DUP5 PUSH2 0xD79 JUMP JUMPDEST POP POP POP JUMP JUMPDEST JUMPDEST DUP2 DUP2 LT ISZERO PUSH2 0xDDA JUMPI PUSH2 0xDCF PUSH1 0x0 DUP3 PUSH2 0xDA3 JUMP JUMPDEST PUSH1 0x1 DUP2 ADD SWAP1 POP PUSH2 0xDBC JUMP JUMPDEST POP POP JUMP JUMPDEST PUSH1 0x1F DUP3 GT ISZERO PUSH2 0xE1F JUMPI PUSH2 0xDF0 DUP2 PUSH2 0xCB5 JUMP JUMPDEST PUSH2 0xDF9 DUP5 PUSH2 0xCCA JUMP JUMPDEST DUP2 ADD PUSH1 0x20 DUP6 LT ISZERO PUSH2 0xE08 JUMPI DUP2 SWAP1 POP JUMPDEST PUSH2 0xE1C PUSH2 0xE14 DUP6 PUSH2 0xCCA JUMP JUMPDEST DUP4 ADD DUP3 PUSH2 0xDBB JUMP JUMPDEST POP POP JUMPDEST POP POP POP JUMP JUMPDEST PUSH1 0x0 DUP3 DUP3 SHR SWAP1 POP SWAP3 SWAP2 POP POP JUMP JUMPDEST PUSH1 0x0 PUSH2 0xE42 PUSH1 0x0 NOT DUP5 PUSH1 0x8 MUL PUSH2 0xE24 JUMP JUMPDEST NOT DUP1 DUP4 AND SWAP2 POP POP SWAP3 SWAP2 POP POP JUMP JUMPDEST PUSH1 0x0 PUSH2 0xE5B DUP4 DUP4 PUSH2 0xE31 JUMP JUMPDEST SWAP2 POP DUP3 PUSH1 0x2 MUL DUP3 OR SWAP1 POP SWAP3 SWAP2 POP POP JUMP JUMPDEST PUSH2 0xE74 DUP3 PUSH2 0x8C7 JUMP JUMPDEST PUSH8 0xFFFFFFFFFFFFFFFF DUP2 GT ISZERO PUSH2 0xE8D JUMPI PUSH2 0xE8C PUSH2 0x59E JUMP JUMPDEST JUMPDEST PUSH2 0xE97 DUP3 SLOAD PUSH2 0xC84 JUMP JUMPDEST PUSH2 0xEA2 DUP3 DUP3 DUP6 PUSH2 0xDDE JUMP JUMPDEST PUSH1 0x0 PUSH1 0x20 SWAP1 POP PUSH1 0x1F DUP4 GT PUSH1 0x1 DUP2 EQ PUSH2 0xED5 JUMPI PUSH1 0x0 DUP5 ISZERO PUSH2 0xEC3 JUMPI DUP3 DUP8 ADD MLOAD SWAP1 POP JUMPDEST PUSH2 0xECD DUP6 DUP3 PUSH2 0xE4F JUMP JUMPDEST DUP7 SSTORE POP PUSH2 0xF35 JUMP JUMPDEST PUSH1 0x1F NOT DUP5 AND PUSH2 0xEE3 DUP7 PUSH2 0xCB5 JUMP JUMPDEST PUSH1 0x0 JUMPDEST DUP3 DUP2 LT ISZERO PUSH2 0xF0B JUMPI DUP5 DUP10 ADD MLOAD DUP3 SSTORE PUSH1 0x1 DUP3 ADD SWAP2 POP PUSH1 0x20 DUP6 ADD SWAP5 POP PUSH1 0x20 DUP2 ADD SWAP1 POP PUSH2 0xEE6 JUMP JUMPDEST DUP7 DUP4 LT ISZERO PUSH2 0xF28 JUMPI DUP5 DUP10 ADD MLOAD PUSH2 0xF24 PUSH1 0x1F DUP10 AND DUP3 PUSH2 0xE31 JUMP JUMPDEST DUP4 SSTORE POP JUMPDEST PUSH1 0x1 PUSH1 0x2 DUP9 MUL ADD DUP9 SSTORE POP POP POP JUMPDEST POP POP POP POP POP POP JUMP INVALID LOG2 PUSH5 0x6970667358 0x22 SLT KECCAK256 NOT SHR PUSH25 0xAA316B339DE5B0789E421A5B37A6E5C99CE94C4CA497BFDA62 JUMP SWAP2 0xA5 MSIZE PUSH5 0x736F6C6343 STOP ADDMOD SHR STOP CALLER "},"methodIdentifiers":{"admin()":"f851a440","certificateExists(bytes32)":"b440983e","generateHash(bytes,string,string,string,string,string)":"59e22bd4","issueCertificate(bytes,string,string,string,string,string)":"aaefc7ff","studentProfiles(bytes32)":"b9b27f00","verifyHash(bytes32)":"ef020f4a"}}}}}