{
  "_format": "hh-sol-artifact-1",
  "contractName": "BlockCertificate",
  "sourceName": "contracts/BlockCertificate.sol",
  "abi": [
    {
      "inputs": [],
      "stateMutability": "nonpayable",
      "type": "constructor"
    },
    {
      "anonymous": false,
      "inputs": [
        {
          "indexed": true,
          "internalType": "bytes32",
          "name": "hashKey",
          "type": "bytes32"
        },
        {
          "indexed": false,
          "internalType": "string",
          "name": "studentProfile",
          "type": "string"
        }
      ],
      "name": "CertificateIssued",
      "type": "event"
    },
    {
      "inputs": [],
      "name": "admin",
      "outputs": [
        {
          "internalType": "address",
          "name": "",
          "type": "address"
        }
      ],
      "stateMutability": "view",
      "type": "function"
    },
    {
      "inputs": [
        {
          "internalType": "bytes32",
          "name": "",
          "type": "bytes32"
        }
      ],
      "name": "certificateExists",
      "outputs": [
        {
          "internalType": "bool",
          "name": "",
          "type": "bool"
        }
      ],
      "stateMutability": "view",
      "type": "function"
    },
    {
      "inputs": [
        {
          "internalType": "bytes",
          "name": "certData",
          "type": "bytes"
        },
        {
          "internalType": "string",
          "name": "name",
          "type": "string"
        },
        {
          "internalType": "string",
          "name": "rollNumber",
          "type": "string"
        },
        {
          "internalType": "string",
          "name": "course",
          "type": "string"
        },
        {
          "internalType": "string",
          "name": "year",
          "type": "string"
        },
        {
          "internalType": "string",
          "name": "institution",
          "type": "string"
        }
      ],
      "name": "generateHash",
      "outputs": [
        {
          "internalType": "bytes32",
          "name": "",
          "type": "bytes32"
        }
      ],
      "stateMutability": "pure",
      "type": "function"
    },
    {
      "inputs": [
        {
          "internalType": "bytes",
          "name": "certData",
          "type": "bytes"
        },
        {
          "internalType": "string",
          "name": "name",
          "type": "string"
        },
        {
          "internalType": "string",
          "name": "rollNumber",
          "type": "string"
        },
        {
          "internalType": "string",
          "name": "course",
          "type": "string"
        },
        {
          "internalType": "string",
          "name": "year",
          "type": "string"
        },
        {
          "internalType": "string",
          "name": "institution",
          "type": "string"
        }
      ],
      "name": "issueCertificate",
      "outputs": [],
      "stateMutability": "nonpayable",
      "type": "function"
    },
    {
      "inputs": [
        {
          "internalType": "bytes32",
          "name": "",
          "type": "bytes32"
        }
      ],
      "name": "studentProfiles",
      "outputs": [
        {
          "internalType": "string",
          "name": "",
          "type": "string"
        }
      ],
      "stateMutability": "view",
      "type": "function"
    },
    {
      "inputs": [
        {
          "internalType": "bytes32",
          "name": "hashKey",
          "type": "bytes32"
        }
      ],
      "name": "verifyHash",
      "outputs": [
        {
          "internalType": "bool",
          "name": "exists",
          "type": "bool"
        },
        {
          "internalType": "string",
          "name": "profile",
          "type": "string"
        }
      ],
      "stateMutability": "view",
      "type": "function"
    }
  ],
  "bytecode": "0x6080604052348015600f57600080fd5b50336000806101000a81548173ffffffffffffffffffffffffffffffffffffffff021916908373ffffffffffffffffffffffffffffffffffffffff160217905550610f738061005f6000396000f3fe608060405234801561001057600080fd5b50600436106100625760003560e01c806359e22bd414610067578063aaefc7ff14610097578063b440983e146100b3578063b9b27f00146100e3578063ef020f4a14610113578063f851a44014610144575b600080fd5b610081600480360381019061007c91906106c9565b610162565b60405161008e919061081d565b60405180910390f35b6100b160048036038101906100ac91906106c9565b6101a4565b005b6100cd60048036038101906100c89190610864565b610361565b6040516100da91906108ac565b60405180910390f35b6100fd60048036038101906100f89190610864565b610381565b60405161010a9190610946565b60405180910390f35b61012d60048036038101906101289190610864565b610421565b60405161013b929190610968565b60405180910390f35b61014c6104eb565b60405161015991906109d9565b60405180910390f35b6000878787878787876040516020016101819796959493929190610a60565b604051602081830303815290604052805190602001209050979650505050505050565b60008054906101000a900473ffffffffffffffffffffffffffffffffffffffff1673ffffffffffffffffffffffffffffffffffffffff163373ffffffffffffffffffffffffffffffffffffffff1614610232576040517f08c379a000000000000000000000000000000000000000000000000000000000815260040161022990610b06565b60405180910390fd5b600061024388888888888888610162565b90506001600082815260200190815260200160002060009054906101000a900460ff16156102a6576040517f08c379a000000000000000000000000000000000000000000000000000000000815260040161029d90610b72565b60405180910390fd5b600086868686866040516020016102c1959493929190610bde565b6040516020818303038152906040529050600180600084815260200190815260200160002060006101000a81548160ff0219169083151502179055508060026000848152602001908152602001600020908161031d9190610e6b565b50817faeb7e439524e4d35b43e6ccb53c42a2fe0361d2e96be31ebc6e2c3cb72aadb948260405161034e9190610946565b60405180910390a2505050505050505050565b60016020528060005260406000206000915054906101000a900460ff1681565b600260205280600052604060002060009150905080546103a090610c84565b80601f01602080910402602001604051908101604052809291908181526020018280546103cc90610c84565b80156104195780601f106103ee57610100808354040283529160200191610419565b820191906000526020600020905b8154815290600101906020018083116103fc57829003601f168201915b505050505081565b600060606001600084815260200190815260200160002060009054906101000a900460ff16915060026000848152602001908152602001600020805461046690610c84565b80601f016020809104026020016040519081016040528092919081815260200182805461049290610c84565b80156104df5780601f106104b4576101008083540402835291602001916104df565b820191906000526020600020905b8154815290600101906020018083116104c257829003601f168201915b50505050509050915091565b60008054906101000a900473ffffffffffffffffffffffffffffffffffffffff1681565b6000604051905090565b600080fd5b600080fd5b600080fd5b600080fd5b600080fd5b60008083601f84011261054857610547610523565b5b8235905067ffffffffffffffff81111561056557610564610528565b5b6020830191508360018202830111156105815761058061052d565b5b9250929050565b600080fd5b6000601f19601f8301169050919050565b7f4e487b7100000000000000000000000000000000000000000000000000000000600052604160045260246000fd5b6105d68261058d565b810181811067ffffffffffffffff821117156105f5576105f461059e565b5b80604052505050565b600061060861050f565b905061061482826105cd565b919050565b600067ffffffffffffffff8211156106345761063361059e565b5b61063d8261058d565b9050602081019050919050565b82818337600083830152505050565b600061066c61066784610619565b6105fe565b90508281526020810184848401111561068857610687610588565b5b61069384828561064a565b509392505050565b600082601f8301126106b0576106af610523565b5b81356106c0848260208601610659565b91505092915050565b600080600080600080600060c0888a0312156106e8576106e7610519565b5b600088013567ffffffffffffffff8111156107065761070561051e565b5b6107128a828b01610532565b9750975050602088013567ffffffffffffffff8111156107355761073461051e565b5b6107418a828b0161069b565b955050604088013567ffffffffffffffff8111156107625761076161051e565b5b61076e8a828b0161069b565b945050606088013567ffffffffffffffff81111561078f5761078e61051e565b5b61079b8a828b0161069b565b935050608088013567ffffffffffffffff8111156107bc576107bb61051e565b5b6107c88a828b0161069b565b92505060a088013567ffffffffffffffff8111156107e9576107e861051e565b5b6107f58a828b0161069b565b91505092959891949750929550565b6000819050919050565b61081781610804565b82525050565b6000602082019050610832600083018461080e565b92915050565b61084181610804565b811461084c57600080fd5b50565b60008135905061085e81610838565b92915050565b60006020828403121561087a57610879610519565b5b60006108888482850161084f565b91505092915050565b60008115159050919050565b6108a681610891565b82525050565b60006020820190506108c1600083018461089d565b92915050565b600081519050919050565b600082825260208201905092915050565b60005b838110156109015780820151818401526020810190506108e6565b60008484015250505050565b6000610918826108c7565b61092281856108d2565b93506109328185602086016108e3565b61093b8161058d565b840191505092915050565b60006020820190508181036000830152610960818461090d565b905092915050565b600060408201905061097d600083018561089d565b818103602083015261098f818461090d565b90509392505050565b600073ffffffffffffffffffffffffffffffffffffffff82169050919050565b60006109c382610998565b9050919050565b6109d3816109b8565b82525050565b60006020820190506109ee60008301846109ca565b92915050565b600081905092915050565b6000610a0b83856109f4565b9350610a1883858461064a565b82840190509392505050565b600081905092915050565b6000610a3a826108c7565b610a448185610a24565b9350610a548185602086016108e3565b80840191505092915050565b6000610a6d82898b6109ff565b9150610a798288610a2f565b9150610a858287610a2f565b9150610a918286610a2f565b9150610a9d8285610a2f565b9150610aa98284610a2f565b915081905098975050505050505050565b7f4f6e6c792061646d696e2063616e206973737565000000000000000000000000600082015250565b6000610af06014836108d2565b9150610afb82610aba565b602082019050919050565b60006020820190508181036000830152610b1f81610ae3565b9050919050565b7f436572746966696361746520616c726561647920657869737473000000000000600082015250565b6000610b5c601a836108d2565b9150610b6782610b26565b602082019050919050565b60006020820190508181036000830152610b8b81610b4f565b9050919050565b7f7c00000000000000000000000000000000000000000000000000000000000000600082015250565b6000610bc8600183610a24565b9150610bd382610b92565b600182019050919050565b6000610bea8288610a2f565b9150610bf582610bbb565b9150610c018287610a2f565b9150610c0c82610bbb565b9150610c188286610a2f565b9150610c2382610bbb565b9150610c2f8285610a2f565b9150610c3a82610bbb565b9150610c468284610a2f565b91508190509695505050505050565b7f4e487b7100000000000000000000000000000000000000000000000000000000600052602260045260246000fd5b60006002820490506001821680610c9c57607f821691505b602082108103610caf57610cae610c55565b5b50919050565b60008190508160005260206000209050919050565b60006020601f8301049050919050565b600082821b905092915050565b600060088302610d177fffffffffffffffffffffffffffffffffffffffffffffffffffffffffffffffff82610cda565b610d218683610cda565b95508019841693508086168417925050509392505050565b6000819050919050565b6000819050919050565b6000610d68610d63610d5e84610d39565b610d43565b610d39565b9050919050565b6000819050919050565b610d8283610d4d565b610d96610d8e82610d6f565b848454610ce7565b825550505050565b600090565b610dab610d9e565b610db6818484610d79565b505050565b5b81811015610dda57610dcf600082610da3565b600181019050610dbc565b5050565b601f821115610e1f57610df081610cb5565b610df984610cca565b81016020851015610e08578190505b610e1c610e1485610cca565b830182610dbb565b50505b505050565b600082821c905092915050565b6000610e4260001984600802610e24565b1980831691505092915050565b6000610e5b8383610e31565b9150826002028217905092915050565b610e74826108c7565b67ffffffffffffffff811115610e8d57610e8c61059e565b5b610e978254610c84565b610ea2828285610dde565b600060209050601f831160018114610ed55760008415610ec3578287015190505b610ecd8582610e4f565b865550610f35565b601f198416610ee386610cb5565b60005b82811015610f0b57848901518255600182019150602085019450602081019050610ee6565b86831015610f285784890151610f24601f891682610e31565b8355505b6001600288020188555050505b50505050505056fea2646970667358221220191c78aa316b339de5b0789e421a5b37a6e5c99ce94c4ca497bfda625691a55964736f6c634300081c0033",
  "linkReferences": {},
  "deployedLinkReferences": {}
}