{
  "_format": "hh-sol-artifact-1",
  "contractName": "CertCheck",
  "sourceName": "contracts/CertCheck.sol",
  "abi": [
    {
      "anonymous": false,
      "inputs": [
        {
          "indexed": true,
          "internalType": "bytes32",
          "name": "certHash",
          "type": "bytes32"
        }
      ],
      "name": "CertificateIssued",
      "type": "event"
    },
    {
      "inputs": [
        {
          "internalType": "string",
          "name": "studentId",
          "type": "string"
        },
        {
          "internalType": "string",
          "name": "courseCode",
          "type": "string"
        },
        {
          "internalType": "string",
          "name": "courseNumber",
          "type": "string"
        },
        {
          "internalType": "string",
          "name": "fileHash",
          "type": "string"
        }
      ],
      "name": "issueCertificate",
      "outputs": [],
      "stateMutability": "nonpayable",
      "type": "function"
    },
    {
      "inputs": [
        {
          "internalType": "bytes32",
          "name": "",
          "type": "bytes32"
        }
      ],
      "name": "issuedCerts",
      "outputs": [
        {
          "internalType": "bool",
          "name": "",
          "type": "bool"
        }
      ],
      "stateMutability": "view",
      "type": "function"
    },
    {
      "inputs": [
        {
          "internalType": "string",
          "name": "studentId",
          "type": "string"
        },
        {
          "internalType": "string",
          "name": "courseCode",
          "type": "string"
        },
        {
          "internalType": "string",
          "name": "courseNumber",
          "type": "string"
        },
        {
          "internalType": "string",
          "name": "fileHash",
          "type": "string"
        }
      ],
      "name": "verifyCertificate",
      "outputs": [
        {
          "internalType": "bool",
          "name": "",
          "type": "bool"
        }
      ],
      "stateMutability": "view",
      "type": "function"
    }
  ],
  "bytecode": "0x6080604052348015600f57600080fd5b5061065b8061001f6000396000f3fe608060405234801561001057600080fd5b50600436106100415760003560e01c80631cafb52314610046578063818a299414610076578063cddbc0ca14610092575b600080fd5b610060600480360381019061005b9190610279565b6100c2565b60405161006d91906102c1565b60405180910390f35b610090600480360381019061008b9190610422565b6100e2565b005b6100ac60048036038101906100a79190610422565b6101d2565b6040516100b991906102c1565b60405180910390f35b60006020528060005260406000206000915054906101000a900460ff1681565b6000848484846040516020016100fb949392919061056a565b60405160208183030381529060405280519060200120905060008082815260200190815260200160002060009054906101000a900460ff1615610173576040517f08c379a000000000000000000000000000000000000000000000000000000000815260040161016a90610605565b60405180910390fd5b600160008083815260200190815260200160002060006101000a81548160ff021916908315150217905550807f615fe29dd761acef07dabe50d28b02874372a0a63ee7fa4221480b34b7ac14ba60405160405180910390a25050505050565b600080858585856040516020016101ec949392919061056a565b60405160208183030381529060405280519060200120905060008082815260200190815260200160002060009054906101000a900460ff16915050949350505050565b6000604051905090565b600080fd5b600080fd5b6000819050919050565b61025681610243565b811461026157600080fd5b50565b6000813590506102738161024d565b92915050565b60006020828403121561028f5761028e610239565b5b600061029d84828501610264565b91505092915050565b60008115159050919050565b6102bb816102a6565b82525050565b60006020820190506102d660008301846102b2565b92915050565b600080fd5b600080fd5b6000601f19601f8301169050919050565b7f4e487b7100000000000000000000000000000000000000000000000000000000600052604160045260246000fd5b61032f826102e6565b810181811067ffffffffffffffff8211171561034e5761034d6102f7565b5b80604052505050565b600061036161022f565b905061036d8282610326565b919050565b600067ffffffffffffffff82111561038d5761038c6102f7565b5b610396826102e6565b9050602081019050919050565b82818337600083830152505050565b60006103c56103c084610372565b610357565b9050828152602081018484840111156103e1576103e06102e1565b5b6103ec8482856103a3565b509392505050565b600082601f830112610409576104086102dc565b5b81356104198482602086016103b2565b91505092915050565b6000806000806080858703121561043c5761043b610239565b5b600085013567ffffffffffffffff81111561045a5761045961023e565b5b610466878288016103f4565b945050602085013567ffffffffffffffff8111156104875761048661023e565b5b610493878288016103f4565b935050604085013567ffffffffffffffff8111156104b4576104b361023e565b5b6104c0878288016103f4565b925050606085013567ffffffffffffffff8111156104e1576104e061023e565b5b6104ed878288016103f4565b91505092959194509250565b600081519050919050565b600081905092915050565b60005b8381101561052d578082015181840152602081019050610512565b60008484015250505050565b6000610544826104f9565b61054e8185610504565b935061055e81856020860161050f565b80840191505092915050565b60006105768287610539565b91506105828286610539565b915061058e8285610539565b915061059a8284610539565b915081905095945050505050565b600082825260208201905092915050565b7f436572746966696361746520616c726561647920657869737473000000000000600082015250565b60006105ef601a836105a8565b91506105fa826105b9565b602082019050919050565b6000602082019050818103600083015261061e816105e2565b905091905056fea2646970667358221220b2d7e24bcf5b1740bf5dc60e6962629e225910363a86328b00aaf0f7de3b564664736f6c634300081c0033",
  "linkReferences": {},
  "deployedLinkReferences": {}
}